S00F000044325F4C6162312E7372656300
S11300000C9434000C9451000C9451000C94510045
S11300100C9452010C9451000C9451000C94510016
S11300200C9451000C9451000C9451000C94510008
S11300300C9451000C9451000C9451000C945100F8
S11300400C94A9010C9451000C9451000C9451008F
S11300500C9451000C9451000C9451000C945100D8
S11300600C9451000C94510011241FBECFEFD8E022
S1130070DEBFCDBF11E0A0E0B1E0E4E8F3E002C0F0
S113008005900D92A231B107D9F721E0A2E1B1E0C8
S113009001C01D92A931B207E1F70E9495000C94AA
S11300A0C0010C9400008AB18C6F8AB98BB18C6F3B
S11300B08BB984B1836084B985B1836085B90895AF
S11300C080509F4FFC01808190E080959095880F2F
S11300D0991F880F991F282F2095892F8095982F75
S11300E0937085B18C7F892B85B92BB90895F894C9
S11300F00E94530084B18C6084B985B18C6085B949
S113010017B8ECE6F0E0808187608083E8E6F0E0F1
S113011080818260808385B5856085BD81EB86BDE5
S113012081E080936E00789408950E947700809116
S11301301001813009F051C0F89485B1877F85B9E9
S113014085B1846085B985E090E00E9460002FEF5E
S113015063ED70E3215060407040E1F700C000009F
S113016084E090E00E9460008FEF93ED20E38150E3
S113017090402040E1F700C0000083E090E00E943E
S113018060006FEF73ED80E3615070408040E1F7F1
S113019000C0000082E090E00E9460009FEF23ED29
S11301A060E3915020406040E1F700C0000081E02E
S11301B090E00E9460007FEF83ED90E371508040F7
S11301C09040E1F700C0000080E090E00E946000F1
S11301D082E0809310017894AACF8091110181115B
S11301E014C085B1877F85B985B1846085B9809154
S11301F01001833029F488E090E00E94600097CFDA
S113020080E090E00E94600092CF813009F08FCFAF
S113021085B18B7F85B985B1886085B94091180116
S11302208091170121E0453009F420E091E0853008
S113023009F490E0922319F11092160122E030E0C3
S113024002C0220F331F4A95E2F72C7390E0059603
S113025041E050E0BA0102C0660F771F8A95E2F7C9
S1130260CB01807C282B20931501109214012BB90B
S113027085B18C7F90911601892B85B958CF453073
S113028039F48BB18CE38BB985B18C7F85B94FCFB1
S1130290853009F04CCF8BB180EC8BB985B183608C
S11302A085B945CF1F920F920FB60F9211248F93E9
S11302B030991BC080911201811113C080911001EB
S11302C0823079F4809117018F5F80931701843015
S11302D041F483E08093100185E08093170110922C
S11302E0180181E08093120102C010921201319929
S11302F01BC080911301811113C0809110018230C1
S113030079F4809118018F5F80931801843041F44F
S113031083E0809310011092170185E08093180107
S113032081E08093130102C01092130132990BC033
S113033080911001833039F481E080931001109290
S11303401801109217018F910F900FBE0F901F90FC
S113035018951F920F920FB60F9211248F9381EB71
S113036086BD809111018F5F80931101823011F459
S1130370109211018F910F900FBE0F901F9018953E
S1070380F894FFCF1B
S11303843F065B4F666D7D077F6F777C395E79F13D
S105039403015F
S9030000FC
